:020000040800F2
:10000000B00A0020952C0008DF2A0008E12A000829
:10001000E32A0008E52A0008E72A0008000000009B
:10002000000000000000000000000000E92A0008B5
:10003000EB2A000800000000ED2A0008EF2A000863
:10004000C92C0008CD2C0008D12C0008D52C0008A4
:10005000D92C0008DD2C0008E12C0008E52C000854
:10006000E92C0008ED2C0008F12C0008F52C000804
:10007000F92C0008FD2C0008012D0008052D0008B2
:10008000092D00080D2D0008112D0008152D000860
:10009000192D00081D2D0008212D0008F32A000845
:1000A000252D0008292D00082D2D0008312D0008D0
:1000B000352D0008392D00083D2D0008412D000880
:1000C000452D0008492D00084D2D0008512D000830
:1000D000552D0008592D00085D2D0008612D0008E0
:1000E000132B0008652D0008692D00086D2D0008F0
:1000F000712D0008752D0008792D00087D2D000850
:10010000812D0008852D0008892D00088D2D0008FF
:10011000912D0008952D0008992D00089D2D0008AF
:10012000A12D0008A52D0008A92D0008AD2D00085F
:10013000B12D0008B52D0008B92D0008BD2D00080F
:10014000C12D0008C52D0008C92D0008CD2D0008BF
:10015000D12D0008D52D0008D92D0008DD2D00086F
:10016000E12D0008E52D0008E92D0008ED2D00081F
:10017000F12D0008F52D000800000000000000002F
:10018000F92D0008FD2D00082DE9FC47050065D07C
:10019000DFF8A076DFF8AC66BC68F86800F003080A
:1001A0002878C10604F00C0448D524B10C2C08BFF3
:1001B000B8F1010F2CD13868810702D5A869002851
:1001C0004CD0396808074EBF396871680909286A38
:1001D00001F0F001814206D200F0F2FA00283DD190
:1001E00000F0F5F907E000F0F2F924B9286A00F010
:1001F000E7FA002832D100F086FABA6800F079FAFE
:10020000DFF83806006800F035FB010016D0D8E1B1
:10021000A86928B3396841F00101396000F04CFB4E
:1002200081463868810707D400F046FBA0EB09003F
:100230000328F6D30320C4E100F0C9F92878C107E8
:1002400056D5082C04D00C2C08BFB8F1030F18D1D8
:10025000386881034CD56868002849D10120B0E195
:10026000386840084000386000F026FB8146386856
:100270008107E3D500F020FBA0EB09000328F6D3AB
:10028000D8E76868B0F5803F04D1386840F4803022
:10029000386011E0B0F5A02F386806D140F4802016
:1002A0003860396841F4803105E020F480303860EE
:1002B000396821F480213960686860B100F0FCFA87
:1002C00081463868810313D400F0F6FAA0EB0900E8
:1002D0006528F6D3AEE700F0EFFA8146386881036F
:1002E00006D500F0E9FAA0EB09006528F6D3A1E7EE
:1002F0002878810713D5042C04D00C2C08BFB8F142
:10030000020F22D13868410502D5E8680028A5D03F
:100310007868296920F0F85040EA01607860287810
:10032000010743D568690028706830D040F00100AB
:10033000706000F0C1FA80467068810736D400F022
:10034000BBFA00F040F9F7D374E7E86878B1396890
:1003500041F48071396000F0AFFA80463868410599
:10036000D6D400F0A9FA00F02EF9F7D362E7386886
:1003700020F48070386000F09FFA804638684105AC
:10038000CDD500F099FA00F01EF9F7D352E74008F6
:100390004000706000F090FA80467068810705D5D3
:1003A00000F08AFA00F00FF9F7D343E72878410705
:1003B00067D5B86DC1004FF000080AD4B86D40F0A1
:1003C0008050B8654FF00108B86D00F08050009083
:1003D0000098DFF87494D9F80000C10513D4D9F857
:1003E000000040F48070C9F8000000F065FA824611
:1003F000D9F80000C10506D400F05EFAA0EB0A00AF
:100400000328F5D316E7A868012804D1306840F026
:100410000100306010E00528306806D140F004008B
:100420003060316841F0010105E040084000306073
:10043000316821F004013160A86841F2893960B166
:1004400000F03AFA82463068810713D400F034FA9B
:10045000A0EB0A004845F6D3ECE600F02DFA824600
:100460003068810706D500F027FAA0EB0A0048455E
:10047000F6D3DFE6B8F1000F03D0B86D20F080505E
:10048000B865A86A002800F09B80022878D1F86837
:10049000EA6A00F00301914201BF00F070012A6B8B
:1004A000521EB1EB021F1ED16A6B00F4FE41B1EB8C
:1004B000022F18D1A96B07290CBF0021012100F4DC
:1004C00000328A420FD1EA6B520800F4C001521E7A
:1004D000B1EB425F07D1296C490800F0C060491EAA
:1004E000B0EB416F48D00C2C4BD03868410101D49F
:1004F0003868C1003FF5B2AE386820F080703860CF
:1005000000F0DAF904463868810105D500F0D4F925
:10051000001B0328F7D38DE6F868DFF83013EA6A8A
:100520000840296B1043491E40EA0110EA6B696BD1
:10053000520840EA0120296C521E490840EA425004
:10054000491E40EA4160A96B090940EA4140F86050
:10055000386840F080703860F96841F08071F96067
:1005600000F0AAF904463868810129D400F0A4F902
:10057000001B0328F7D35DE63868810120D4E7E744
:100580000C2C3FF46BAE386820F08070386039680E
:1005900011F0205F03D1F86880088000F860F968E6
:1005A000DFF8AC020140F96000F086F904463868D3
:1005B000810105D500F080F9001B0328F7D339E647
:1005C0000020BDE8F687A0EB0800032870473868D4
:1005D00040F0080038603968286A21F0F0010143D2
:1005E00039607968E86921F47F4141EA0021796046
:1005F00070472DE9F0410400884658D0DFF8546276
:10060000306800F00700404509D23168C90848EA5F
:10061000C1013160306800F00700404547D12078C3
:10062000DFF81052C1072AD56068032802D1296873
:100630008A0108E0022802D129688A0303E0002821
:10064000296802D18A0702D431E04A052FD5A9686A
:10065000890840EA8100A86000F02EF90746A868E2
:10066000616800F00C00B0EB810F08D000F024F9B5
:10067000C01B41F289318842F1D3032037E0207852
:10068000810705D5AA68A06822F0F0020243AA609B
:10069000316801F0070188450BD23068C00848EA8C
:1006A000C0003060316801F00701414501D00120F0
:1006B0001DE02078410705D5AA68E06822F4E062D1
:1006C0000243AA602178080706D5A968206921F4A9
:1006D000605141EAC001A96000F015F8AA6800F075
:1006E00008F8BDE8F0415548006800F0C3B8BDE81F
:1006F000F0815949C2F30312895C4F4A01F01F018E
:10070000C8401060704770B54A4A554B9068D6682B
:100710000025002110F00C0006F00306514C03D018
:100720000C2812D1012E1AD115682E0704D4444D7D
:100730002E68C6F3032502E01568C5F303154A4E7B
:1007400056F8255048B9294624E0042808BF214618
:1007500020D008281ED119461CE00C281AD1D068D8
:1007600000F00300022803D0032808BF1D4600E064
:100770002546D168D068D268C0F306204543C1F34E
:100780000210C2F34161401C491CB5FBF0F0490066
:10079000B0FBF1F1084670BD2748304A0068136885
:1007A0003249C3F3022206E023482C4A006813684A
:1007B0002E49C3F3C222895C01F01F01C840704773
:1007C0007CB52B4E054630680024C10002D500F0F0
:1007D00079F80EE0306840F080503060316801F008
:1007E00080510091009800F06DF8316821F080513F
:1007F0003160B0F5007F04D1802D0CD9A12D09D333
:1008000004E0802D88BF032405D801D1022402E032
:10081000702D00D101240F480168C90844EAC101C4
:100820000160006800F00700A04201D0012076BD01
:10083000002076BD001002400C00002004000020C3
:100840009410024090100240007000408C809DF98E
:10085000FFFFEEFE002002409C2B00080810024023
:1008600000127A000024F400AC2B0008C02C000811
:100870005810024070B50E4E0446B0680025A0B175
:100880004FF47A710B4AB1FBF0F11068B0FBF1F054
:1008900000F0A6F848B9102C07D2002221464FF0EC
:1008A000FF3000F075F8746000E00125284670BD47
:1008B000000000200C00002001480068704700BFC5
:1008C00000000020DFF88400006800F4C06070477A
:1008D00010B5DFF87810B0F5007F086800F4C0604C
:1008E00019D1B0F5007F1FD00868DFF86420DFF869
:1008F000644020F4C06040F4007000F01FF800E095
:10090000401E4A69530501D50028F9D148694105BF
:100910000AD5032010BDB0F5806F05D0086820F41B
:10092000C06040F480600860002010BDDFF828003F
:10093000FFE7016841F48061016070470860322080
:1009400013684343B3FBF4F0401C70470070004051
:100950000C00002040420F0004700040090102001A
:1009600002D4294881547047284B02F00F021A44E0
:1009700002F8041C7047264B19684FF6FF0200026C
:10098000114000F4E06008432249084318607047B2
:1009900070B51F4B1C68C4F302230124C3F1070583
:1009A000052D2EBF0F2504FA05F56D1E1E1D072E01
:1009B00034BF0023DB1E2940994004FA03F3BDE84D
:1009C00070405B1E1A401143C8E7010007D40122A2
:1009D00000F01F01104B8A40400943F82020704767
:1009E00010B5401EB0F1807F01D3012010BD0B4C2B
:1009F00060600F214FF0FF30FFF7B0FF0021A160D2
:100A000007202060002010BD00E400E018ED00E0A9
:100A10000CED00E00000FA0500E100E010E000E06D
:100A20002DE9FC47064600243068DFF820740105F4
:100A3000A04621D5706E70B1B0F5800F17D0B0F51B
:100A4000000F03D0B0F5400F09D013E03A6842F42C
:100A500080323A6004E0002100F07CF9044654B989
:100A6000F96F706E21F440010143F96704E000F072
:100A70006BF9F3E70124A0463068C10421D5B06EBC
:100A8000A8B1B0F1807F17D0B0F1007F03D0B0F1F2
:100A9000407F04D013E0396841F4803139607CB97B
:100AA000F96FB06E21F040710143F96709E0002150
:100AB00000F050F90446F2E700F046F9FAE70124A5
:100AC000A046306881032BD5F86CC1004FF00009B7
:100AD0000AD4F86C40F08050F8644FF00109F86CCB
:100AE00000F0805000900098DFF83454286840F4FB
:100AF00080702860FFF7E0FE82462868C10500F19B
:100B00008280FFF7D9FEA0EB0A000328F5D3032467
:100B1000A046B9F1000F03D0F86C20F08050F864C3
:100B20003078C10705D5FA6FB06B920840EA8202AF
:100B3000FA673178880705D5F96FF06B21F00C0161
:100B40000143F9673178480705D5F96F306C21F01A
:100B500030010143F9673178080705D5F96F706CEA
:100B600021F0C0010143F9673178C80605D5F96F56
:100B7000B06C21F440710143F9673178880605D5DE
:100B8000F96FF06C21F440610143F9673168880521
:100B900005D5F96FF06D21F440210143F967316803
:100BA000480505D5F96F306E21F440110143F9670E
:100BB0003178480605D5F96F306D21F44051014375
:100BC000F9673178080605D5F96F706D21F4404159
:100BD0000143F9673168C80505D5F96FB06D21F497
:100BE00040310143F9673168880446D5F96FF06EEA
:100BF00021F040610143F967F06EB0F1006F34D12C
:100C000000F09DF839E0002C82D1DFF850432068D5
:100C100010F440701CBFD6F8841088420BD02068B6
:100C2000216841F48031216020F44070226822F470
:100C3000803222602060C0070FD5FFF73DFE0546D9
:100C40002068810709D4FFF737FE401B41F2893144
:100C50008842F5D34FF003085BE72168D6F884009B
:100C600021F440710143216053E7B0F1806F04D15A
:100C700000F06FF8010018BF80463068010314D5FA
:100C8000FA6F306F22F040620243FA67306FB0F1C2
:100C9000006F02D100F053F807E0B0F1806F04D18B
:100CA00000F057F8010018BF80463068410314D5A2
:100CB000FA6F706F22F040620243FA67706FB0F112
:100CC000006F02D100F03BF807E0B0F1806F04D173
:100CD00000F03FF8010018BF80463068410418D585
:100CE000FA6FB06F22F040520243FA67B06FB0F172
:100CF000805F03D1022100F02DF807E0B0F1005F22
:100D000007D1022106F1200000F0A2F8010018BF6F
:100D100080463068010405D5FA6FF06F22F08042FA
:100D20000243FA673168C80306D5F96FD6F8800028
:100D300021F000410143F9674046BDE8F687386875
:100D400040F4801038607047002106F1200000F068
:100D50007FB80121301D05E08148016841F00401A0
:100D6000016070472DE9F04105467D4F28680C462B
:100D7000F968002611F0030F0DD0F96801F00301A6
:100D8000814231D180B3F8686968C0F30210401C19
:100D900088420ED028E0012804D025D303281DD096
:100DA00018D321E03A6891071ED5FA68696800F007
:100DB000C9F8386820F0806000F0CCF880463868C8
:100DC000010113D5FFF778FDA0EB08000328F6D347
:100DD000032637E039684A05E7D405E039688A0315
:100DE000E3D439684A03E0D401262BE0A9682CB982
:100DF0003A695C48EB6800F095F80FE0012C3A691D
:100E000009D12B69584802405B0842EA01215B1E68
:100E100041EA435102E06B6900F08BF839613868B0
:100E200040F0806000F096F804463868010105D46F
:100E3000FFF742FD001B0328F7D3C9E73869A9690A
:100E4000084338613046BDE8F08100000C100240D4
:100E50002DE9F0410646424F30680C46F9680025FE
:100E600011F0030F0DD0F96801F00301814231D177
:100E700080B3F8687168C0F30210401C88420ED03D
:100E800028E0012804D025D303281DD018D321E061
:100E90003A6891071ED5FA68716800F053F838680F
:100EA00020F0805000F056F880463868810013D555
:100EB000FFF702FDA0EB08000328F6D303252BE083
:100EC00039684A05E7D405E039688A03E3D439680C
:100ED0004A03E0D401251FE0B1687A69002C04D1EF
:100EE0002048F36800F01EF802E0336900F021F8B2
:100EF0007961386840F0805000F02CF8044638687A
:100F0000810005D4FFF7D8FC001B0328F7D3D5E7F1
:100F100078697169084378612846BDE8F08100006E
:100F200000700040024042EA01211B0941EA4341AE
:100F300070470E4802405B0842EA01215B1E41EA0D
:100F40004361704722F073021043491E40EA0110CA
:100F5000F86070473860FFF7AFBC000090100240A7
:100F600000100240FF80FDFFFF809FFFFF80FFF920
:100F70002DE9F84386B000F08BFA00F005FA00F096
:100F800046FADFF8C404DFF8C4940168DFF8C054FF
:100F9000DFF8C064DFF8C084DFF8C07441F01001EE
:100FA000016048F20414026802F0100205920599EB
:100FB000026842F004020260036803F00403059330
:100FC0000599026842F001020260036803F0010320
:100FD00005930599026842F002020260036803F07B
:100FE000020305930599026842F00802026000229C
:100FF000006800F0080005904FF48A710598484693
:1010000000F054FB002221464FF0904000F04EFBD0
:1010100000224FF21401284600F048FB002241F262
:101020008101304600F042FB01224FF4005130466E
:1010300000F03CFB00224FF41071404600F036FBFC
:1010400001222021284600F031FB012201214846DF
:1010500000F02CFB40F2151100F08EF9484600F02C
:1010600043FA6A200090019700210291484600F05F
:101070006DF94FF40050DFF8E81300F075F93F20E8
:101080000B2100F071F9002202210292019103204C
:1010900008220090039000F061F9012001900022E5
:1010A00002920392009400F05AF9002202920392F5
:1010B0000820022100900191012200F04FF9102038
:1010C00000F03EF900F04BF902210191002202925A
:1010D000E020032100900391052200F03FF9012157
:1010E00000F037F9284600F031F9022000F028F925
:1010F00000F01DF94FF2340100F03EF900F018F94C
:101100004CF6044100F025F9304600F01FF943F297
:10111000810100F031F9304600F0E6F94FF410712A
:1011200000F02AF9404600F0DFF94FF4C07100F0FA
:1011300010F9404600F00AF9002202920220032131
:10114000009001900391052200F0F5F80221019131
:10115000782000220321009002920391072200F0E0
:10116000EAF8122101910022029203210391042244
:101170004FF440740492009400F0D9F8002200214A
:101180001720FFF705FC1720FFF71FFC00220021A6
:101190002820FFF7FDFB2820FFF717FC0121B14DA8
:1011A000B148297128604FF48071A961022004219F
:1011B00029620022E8600121AA602A616A61EA616D
:1011C0006A62A962EA622A63284600F099FA08B1C5
:1011D00000F05CF905F2A456A448A549306000224D
:1011E0000120F0607160B26032617261B261F261DF
:1011F0003262304600F02EFB08B100F047F90021C2
:10120000304600F07FFB08B100F040F90021304685
:1012100000F08DFB08B100F039F99648F064022126
:101220003165042070651021B1651720F06500213B
:101230003166716605F5BE6000F0BAFB08B100F0DA
:1012400025F98D48A8634FF4827100202864A864B2
:10125000E8646865E865E96307204FF40071686633
:10126000296508200021E866A9652966A9666C64DD
:1012700005F1380000F018FC08B100F007F90C2265
:1012800000F0C6F805F234647C48206000214FF677
:10129000FF70E0606160A160A161204600F05CFC2D
:1012A00008B100F0F3F80021009102912046694650
:1012B00000F0D8FC08B100F0E9F805F2A44070494C
:1012C000016000220C214FF4E13400F025F808B150
:1012D00000F0DCF805F224506A49016000220C217C
:1012E00000F01AF808B100F0D1F8062205F19C00D0
:1012F0004FF0A0414260022300220160C36083617D
:10130000C2610262426282620263C26200F0F4FC65
:1013100008B100F0BBF8FEE78260C2600261416183
:101320008261C26102624262446000F053BD69465C
:10133000284600F0D9B804926946304600F0D4B887
:101340000B2100900191002202927047694600F043
:10135000CBB8009101970021029170470492694631
:101360004FF0904000F0C0B800900191002202922E
:101370006946404600F0B8B8009101220021029170
:10138000039101926946704780B596B044220021CE
:1013900005A800F090FF00F03AF84FF40070FFF756
:1013A00097FA08B100F072F800F090FF3648016833
:1013B00021F0180101601422059201216022079199
:1013C0000B910D92002101220C9110921192022199
:1013D00028220F9112920721022213911492159242
:1013E00005A8FEF7D1FE08B172B6FEE70F20032173
:1013F000FFF7A7FF0392049204216846FFF7F9F86C
:1014000008B172B6FEE7FFF7A7FC17B000BD1422C3
:101410000021684600F04FBFB0F5005F00D0704774
:1014200080B54FF480410A4800F045F9642000F08F
:1014300055FF4FF40071084800F03DF9BDE8024047
:10144000322000F04BBF00004C100240001000485A
:1014500000040048000C004800080048000011107B
:1014600000002110100000202060014000580040C2
:10147000EC9C9010001000A0003C004000100040C8
:1014800000380140004800409010024072B6FEE76C
:10149000032010B5FFF76FFA0020FFF7EBF90024E7
:1014A000002814BF012400F02DFF204610BD30B4E9
:1014B000002513E050F8042BD30744BFA9F1010322
:1014C0009A18091F042942F8045BFAD213468C07C4
:1014D00044BF15809B1CC90748BF1D7050F8041BF2
:1014E0000029E7D130BC70472DE9F84F4FF0000ECE
:1014F000794BDFF8E881DFF8E8914FF00F0A0746F3
:101500008C462BE0774DAF4214BF072506258D4052
:10151000254348F82250C1431A68DCF804400A40C9
:10152000E50348BF02431A605A68DCF804400A40E9
:10153000A50348BF02435A609A68DCF804400A4099
:10154000E50248BF02439A60DA680A40DCF80410FA
:101550008C0248BF0243DA600EF1010EDCF8001085
:1015600031FA0EF000F0A080012202FA0EF212EA27
:101570000100F1D0DCF80440022C18BF122C4FEA15
:101580008E0110D14FEADE0407EB840401F01C0544
:10159000266A0AFA05FB26EA0B06DCF810B00BFAFD
:1015A00005F5354325624FEA4E0403253E689CF855
:1015B00004B0A540ED430BF0030B2E400BFA04FBE7
:1015C0004BEA06063E60D243DCF80460012E18BFE9
:1015D000022E03D0112E18BF122E13D1BE68DCF8D4
:1015E0000CB02E400BFA04FB4BEA0606BE607E6888
:1015F000DCF804B0CBF3001B16400BFA0EFB4BEAF1
:1016000006067E60DCF8046006F0030BBBF1030FF6
:1016100009D1D7F82CB0C6F3C00602EA0B0206FACD
:101620000EF63243FA62FA681540DCF8082002FA36
:1016300004F42C43FC60DCF80440E2008CD5D9F8BB
:10164000004044F00104C9F800404FEA9E02D9F876
:10165000005005F00105009501F00C01009C58F8C0
:1016600022500AFA01F425EA0404B7F1904F08BFAA
:10167000002518D01C4DAF4208BF012513D01B4DCB
:10168000AF4208BF02250ED0194DAF4208BF032557
:1016900009D0184DAF4208BF042504D0164DAF4203
:1016A0007FF430AF052532E7BDE8F18F0AB18161E3
:1016B00070478162704742690A4201D08162704777
:1016C000816170470D4A136803421CBF1060FFF729
:1016D000A3BE704700000000000401400800014064
:1016E000601002400018004800040048000800484C
:1016F000000C004800100048001400481404014089
:1017000070B5040005D000F067F8291D51F82000DD
:1017100008B1012070BD204600F00BFE2868401C77
:101720002860296801291AD1DFF8B810086820F06C
:10173000804008600A68A06802430A600B6823F4CE
:101740007F030B602079012805D10A68E068401EFC
:1017500042EA00420A60086840F0004008602068E1
:10176000016821F471410160036826696269A16919
:1017700016430E433343036003681B091B010360D8
:101780000268E369216A0B431A430260826822F40B
:101790005F0282608168A36A626A5B1E42EA03425A
:1017A00011438160416801F0070141604168236B8A
:1017B000E26ADB0043EA0223194341600122016827
:1017C00041F08001016084F8342000F00DF8291DFB
:1017D00041F82040002070BD2068DFF85C5000F028
:1017E00003B80000006001401249884201D1002086
:1017F00070471249884201D1012070471049884240
:1018000001D1022070470F49884201D1042070475E
:101810000D49884201D1052070470C49884201D109
:10182000062070470A49884201D1072070470320EB
:1018300070470000006001408406002020600140E5
:101840004060014080600140A0600140C0600140F4
:10185000E060014038B5040001D1012032BD04F13F
:101860004005687820B900212970204600F08FFDDE
:1018700000F040F86068216820F07060086120681E
:10188000816821F400418160E06821680128A06836
:101890000CBF40F4004040F404408860E068022837
:1018A00003D120684FF4006141602068416841F035
:1018B000007141F4004141602068C16821F4004199
:1018C000C16060692169A2690143206841EA02217F
:1018D000C160206AE16922680143116020680168E3
:1018E00041F00101016000206860202169702063DF
:1018F000A87032BD2420687020680168490849003A
:101900000160704730B500F140025378202B0CD1B4
:101910001478012C09D000F01DF824F480541C60C8
:1019200003681D682943196020E0022030BD30B5EE
:1019300000F140025378202B0AD11478012C07D0F3
:1019400000F008F824F4706444EA01241C600DE0FF
:10195000022030BD012313702424547003681D68D5
:101960006D086D001D6003681C68704700680168A1
:1019700041F0010101602020507000211170002011
:1019800030BD30B40EE00268436802440830DC0722
:1019900044BFA9F10104E31852F8045B43F8045B67
:1019A000091FF9D150F8041B0029ECD130BC704755
:1019B000F8B50446FEF780FF06460CB90120F2BDDB
:1019C00004F138052878012801D10220F2BD012157
:1019D0002970687838B900212970204600F00EFD82
:1019E00041F28830A860334620680168A26821F47B
:1019F0007061521E41EA0221016000F029F80100E5
:101A00001ED122681049136866680B40E16843EAFA
:101A100006630B4313600D4923685E68276962699A
:101A20000E4046EA0746A16916430E435E602168F0
:101A30000A6842F001020A600021696001226A70AE
:101A400000212970F2BD0000EFFFFF00FEF8E0FF6B
:101A50000022A868009020212046FFE72DE9F041F0
:101A6000069C05460E4690461F462868816816EA81
:101A7000010018BF0120404512D014F1010FF4D02D
:101A8000FEF71AFFC01B844201D3002CEDD10420C5
:101A900085F839000120E96B41F00101E96300E0BC
:101AA0000020BDE8F081000070B5040001D10120E4
:101AB00070BD0020A06204F15C05687820B90021A7
:101AC0002970204600F0D4FC0220687000F03DF838
:101AD000E168B1F5E06F04D90022B1F5706F03D170
:101AE00004E04FF4805201D00020A062206B30B996
:101AF000B1F5E06F87BF0220206301212163636895
:101B0000A06821692668034360690B43A169034308
:101B100001F40071E0690B43216A0343A06A0B439F
:101B200003433360A369606A616B1B0C03F0040319
:101B30000343E0680B4303431A4323685A600021C0
:101B4000696001206870002070BD2068016821F084
:101B5000400101607047000038B5040001D1012048
:101B600032BD00F014F818B900F00DF800F0A9FC2F
:101B7000FFE702206870211D206800F00CF80120AA
:101B80006870002032BD002129702046704704F1A2
:101B90003C05687870472DE9F043DFF8A870D0F86D
:101BA00000C0DFF8A430DFF8A440DFF8A450DFF86D
:101BB000A460DFF8A4E0DFF8A480DFF8A490B842C6
:101BC00018BFB0F1804F07D0484518BF404503D03B
:101BD000704518BFB0420ED14A68B8422CF0700C64
:101BE00018BFB0F1804F42EA0C0C0CD048451CBF26
:101BF0004045704507D0B04218BFA84203D0A0426C
:101C000018BF984204D1CA682CF4407C42EA0C0CFC
:101C10004A692CF0800C42EA0C020260B8428A68E1
:101C2000C26218BFB0420A68826204D0A8421CBFD8
:101C3000A042984201D10969016301224261BDE8D5
:101C4000F0830000002C01400048014000440140A6
:101C50000040014000340140000C004000080040FA
:101C600000040040F0B500F13C042278012A01D1C3
:101C70000220F0BD01222270022363700668DFF8A3
:101C800060E07768DFF85CC0B568764518BF6645E8
:101C900003D14B6827F470071F430A6827F07007C9
:101CA000174377600268724518BFB2F1804F0CD0BD
:101CB0000D4882421CBF0D4B9A4206D00C4882420E
:101CC0001EBF62450B4B9A4204D1886825F08005FF
:101CD000054395600121617000202070F0BD000077
:101CE000002C014000340140000400400008004086
:101CF000000C00400040014070B504008AB04BD099
:101D0000266804F56F75687820B90021297020468F
:101D100000F04DFC03206870F16BC8055CBF00212A
:101D20002161206800F0F7FC83B000F04EF80EBC93
:101D3000206800F0BFFC00282CD12068002100F0B2
:101D4000F0FC00211C2000260AE010FB01F22244D6
:101D50003C32012353701170D180002300F02EF823
:101D600062689142F1D3002109E010FB01F22244A4
:101D700002F5FE7200231170537000F01FF86268C4
:101D80009142F2D383B000F020F80EBC206800F03E
:101D9000DCFC18B10220687001200DE084F83800E6
:101DA00001216970606A012804BF204600F0BEFD71
:101DB000206800F093FD00200AB070BD491CD67069
:101DC0009360D6605361C9B27047211D68463422C2
:101DD00000F0C0BD38B5040009D004F17005696891
:101DE00009B900F01EF800F021F8012801D1012006
:101DF00032BD606A08B100F02AF800F00AF821F05C
:101E00002A01FFE7816000F01BF8BDE8324000F0D6
:101E1000DEB92068416821F4904141602068816802
:101E2000704700202870204600F05CBB24216960C8
:101E300020680268520852000260204600F00AB88A
:101E40002068016841F0010101602046704720468A
:101E500000F05AB92DE9F04104469D482268136804
:101E6000A168034020690B4361690343E0690B43A8
:101E70000343136000265168E06821F44051014398
:101E800051600025A36991498A421CBF206A03431F
:101E90009768904827F430673B4393608E4F8F4B91
:101EA000BA4221D11B6803F00303032B29D8DFE8D2
:101EB00003F0025F50710127E169B1F5004F4FF661
:101EC000F07840F0D38067B1012F00F0A980022F95
:101ED00000F0A980042F00F0AB80082F00F0B18043
:101EE000B7E0FEF759FCA5E07D4FBA4223D11B684D
:101EF00013F00C035FD0042B3AD0082B29D00C2B05
:101F000048D010278A42D7D1390006D0022F09D0F5
:101F1000042F52D0082F53D0D0E0FEF73DFC00280C
:101F200000F0CD80626802EB4201884202D31303C5
:101F3000834248D2C2E06B4FBA420CD11B6813F007
:101F4000300338D0102B13D0202B02D0302B21D0CF
:101F5000D7E70227D6E7644FBA420BD11B6813F0CC
:101F6000C00328D0402B03D0802BF2D0C02BEEE74B
:101F70000427C7E75D4FBA420ED11B6813F44073C4
:101F800019D0B3F5807FF3D0B3F5007FE1D0B3F57E
:101F9000407FB6D10827B5E78A42B2D11B6813F457
:101FA000406308D0B3F5806FE2D0B3F5006FD0D0B6
:101FB000B3F5406FCBE70027A4E7FEF7A4FBAEE73D
:101FC0004FF40040AEE737B1022F0AD0042F0ED0F5
:101FD000082F16D01BE0FEF7DFFB00F08FF87941E9
:101FE0000AE0434911EB520045EB050104E0FEF71E
:101FF0008AFB00F083F86941002300F0B7FC064635
:1020000006E0530803F50003B3FBF2F600E00125F8
:10201000A6F540703749884250D22268D6604EE01B
:10202000FEF7C2FB06E06068334901EB50010CE0AB
:10203000FEF769FB61684A0802EB4002B2FBF1F669
:1020400005E06068410801F58031B1FBF0F6B6B2F9
:1020500000E00125A6F1100040452FD208EA060154
:10206000C6F3420001432068C16028E047B1012F58
:1020700009D0022F0CD0042F08D0082F0ED015E065
:10208000FEF78AFB04E0FEF78FFB01E0FEF73BFB67
:10209000616800EB5100B0FBF1F605E060684108B3
:1020A00001F50041B1FBF0F6B6B200E00125A6F162
:1020B0001000404502D22168CE6000E001250020DA
:1020C000206660662846BDE8F08100000080004080
:1020D000F369FFEF0024F40000380140881002404B
:1020E0000044004000480040004C004000500040C8
:1020F000000024F400FD0F000048E8016268010EB2
:10210000560816EB0020704790F82410CA0706D531
:1021100002685368816A23F400330B43536090F8DC
:1021200024108A0706D502685368C16A23F48033F5
:102130000B43536090F824104A0706D50268536891
:10214000016B23F480230B43536090F824100A079B
:1021500006D502685368416B23F400430B43536078
:1021600090F82410CA0606D502689368816B23F4A0
:1021700080530B43936090F824108A0606D50268BA
:102180009368C16B23F400530B43936090F82410C1
:102190004A0610D502685368016C23F480130B4380
:1021A0005360036CB3F5801F05D15368416C23F471
:1021B000C0030B43536090F824100A0606D501684B
:1021C0004A68806C22F4002202434A607047F8B5E6
:1021D000044604F170050020E8606FF07E47FEF7CA
:1021E0006BFB0646206801680A0708D5009733464E
:1021F00000224FF40011204600F016F860B9206864
:1022000001684A070AD50097334600224FF480013F
:10221000204600F009F808B10320F2BD20206860D4
:10222000A86000202870F2BD2DE9F041069C05460B
:102230000E4690461F462868C1693140B1420CBF26
:1022400001200020404529D114F1010FF3D0FEF701
:1022500033FBC01B844200D35CB92868016821F4B9
:10226000D071016000F01CF8002101700320BDE86E
:10227000F081286801684A07DDD5C1690A05DAD509
:102280004FF4006101622868026822F4D072026093
:10229000002200F005F8C1600270E7E70020E6E7E1
:1022A0002868816849084900816005F17000202193
:1022B00041608160704710B5044610460A460146E9
:1022C000204600F0D7FB204610BD00000248016800
:1022D00041F48071016070470070004038B50446D9
:1022E000FEF7EAFA14F1010F054602D004498868A6
:1022F0000419FEF7E1FA401BA042FAD331BD00BF3A
:1023000000000020DFF86C0381B0816841F001011A
:102310008160816801F0010100910099026842F03A
:1023200080520260006800F080500090009801B078
:10233000704710B5A8B000F096F800F033F9DFF858
:102340003843206808BB4FF4803100220691269262
:1023500000F025F908B1FFF799F8DFF8200341698B
:1023600041F080714161416901F0807100F073F8C2
:102370004FF4207100F063F804910621059101A942
:10238000FFF7B2F82068401C206028B010BD10B5DF
:10239000A8B000F067F800F005F92068DFF8E01257
:1023A000884229D18022002106921B9100F0F7F883
:1023B00008B1FFF76BF8DFF8C442206840F0020074
:1023C00020601222216801F0020100914FF4406167
:1023D0000098DFF8B00201910292012103910322DB
:1023E000042100F027F8E06840F48000E060E06835
:1023F00000F480000090009828B010BD10B586B0A1
:1024000000F030F82168A048814211D19B48416812
:1024100041F480714160416801F4807100F01BF863
:102420004FF47C4100F00BF803220A2100F002F87F
:1024300006B010BD0591049201A9FFF755B80068D8
:1024400000F0100000900222009890480191029242
:1024500000210391704700910099026842F0100238
:102460000260704704461422002101A8FFF723BF31
:1024700010B586B0FFF7F6FF2168854881421ED16E
:102480007E48C16841F40041C160C16801F4004167
:1024900000910099026842F0040202604FF4E0519A
:1024A000006800F004000090022200987948019131
:1024B00002920021039103220621FFF7BBFF06B021
:1024C00010BD81B000687449884209D1694802682A
:1024D00042F010020260006800F0100000900098C6
:1024E00001B0704710B5A8B0044614220021684618
:1024F000FFF7E1FE00F056F8206868495F4C88421B
:102500001ED1012200210692149100F048F808B172
:10251000FEF7BCFF606940F480406061606900F4D0
:10252000804005900598216841F002012160C0219A
:10253000226802F00202059202220598514821E029
:102540005749884229D1042200210692169100F0B1
:1025500026F808B1FEF79AFFE06840F48020E060BA
:10256000E06800F4802005900598216841F008019A
:1025700021604FF44071226802F0080205920222A5
:1025800005984848009101920021029103220721F9
:10259000049103926946FEF7A7FF28B010BD06A874
:1025A000FEF73EBA8822002106A8FFF784BE10B5C8
:1025B000A8B0FFF757FFFFF7F5FF2068B0F1A04F75
:1025C00051D14FF4005106914FF0806201210791E3
:1025D0000891219218210991072202210B910C9157
:1025E0000A924FF480110D91FFF7D9FF08B1FEF761
:1025F0004DFF224C206840F001002060002221683D
:1026000001F0010100914FF40071009801910292D4
:10261000039200F02AF802210291002203924FF463
:10262000E0500321019004910A22059200F01DF868
:10263000206840F480502060216801F480510091AE
:102640000098E168C8000CD4E16841F08051E16075
:1026500000F02AF8FEF76AF9E06820F08050E060A8
:1026600001E0FEF763F928B010BD01A94FF09040DA
:10267000FEF73ABF58100240A80600204C10024056
:102680000058004000040048001000A0001000485E
:10269000003C0040000800480010004000380140A5
:1026A00000480040000C0048E06800F080500090B6
:1026B000009870470EB418B504460898012817D141
:1026C000A06B20F48030A063E168DFF85402014081
:1026D000E160E16821F44011E1600F98012803D125
:1026E000E06840F48010E060204600F003F90FE05D
:1026F000E06840F04000E060204600F0FBF80C99F4
:102700000029A16B0CBF41F4803121F48031A16319
:1027100012BC5DF810FB8168490849008160002007
:10272000704780B5C26822F0C0420129C26005D15D
:10273000C16841F00051C1603220D7E019B9C168C9
:1027400041F08041F7E7012002BD0EB42DE9F043CE
:102750000546044600260021002004EB8102491CA6
:102760000F29C2F80401F8D3DDF84490B9F1000F45
:1027700005F5006710D1786840F002007860A06B22
:1027800020F40010A063216841F04001216020681E
:1027900040F08000206003E0A06B40F40010A063D4
:1027A00005F5606303211E6038683860204600F03C
:1027B0008DF81021204600F06DF800B1012620466A
:1027C00000F077F800B101260020386178612A46D0
:1027D000F8614FF67F334FF0904C4FF0006E0025BC
:1027E00003E00D600D618B60401C0799884211D297
:1027F00002EB401101F51061D1F80080B8F1000F33
:10280000EFD5002806BF02F51068C8F800E0C1F84F
:1028100000C0E7E7002003E00D600D618B60401C05
:102820000799884211D202EB401101F53061D1F8CD
:102830000080B8F1000FEFD5002806BF02F5306820
:10284000C8F800E0C1F800C0E7E7386920F48070FC
:102850003861A5616FF080406061A169DFF8C40054
:1028600041F01001A161A1690143A1610D9818B166
:10287000A06940F00800A061B9F1010F05D1A0697D
:1028800040F0804040F00400A0613046BDE8F00315
:102890005DF810FB890141F020010161DFF888102B
:1028A000491E04D002699306FAD400207047032021
:1028B000704710210161DFF87010491E04D00269D1
:1028C000D306FAD4002070470320704700F500605B
:1028D00002681143FFE701600020704780B500F5F2
:1028E0000060416841F0020141600320FFF7F6FCFF
:1028F000002002BDDFF830201146491E0DD00369CB
:10290000002BFAD5016941F001010161521E04D08A
:102910000169CB07FAD400207047032070470000FC
:10292000BFFFBDFF00383C80410D0300016800F58A
:102930007D700122002382600370886940F000608E
:102940008861486D40F0805040F0030048650020E9
:10295000704700004AB1000011F8013B521E00F818
:10296000013B1CBF11F8013BF8E77047D3BBD9B15D
:10297000B2F5803F5BD2022A1ED98C46B1FBF2F140
:1029800002FB11C31B0443EA1043B3FBF2FC02FB3E
:102990001C3380B240EA0343B3FBF2F002FB103277
:1029A00040EA0C4000237047022A05D98446B0FB58
:1029B000F2F002FB10C270474AB105D100F00102EB
:1029C00049085FEA3000704700220023704700F09A
:1029D00085B80B000200002100207047F7D30022C9
:1029E00000237047904271EB030CF2D370B5B1FA3B
:1029F00081F4B3FA83F52C1BA340C4F1200532FA0D
:102A000005F63343A2405FF00046E64002E05B0873
:102A10005FEA3202841A71EB030524BF204629467F
:102A20007641F4D302000B003000002170BD70B578
:102A3000B1FA81F4B2FA82F5C4F120046419B4F158
:102A40002006DAD3B2405FF00044F440002502E0F3
:102A500052085FEA3303C61A71EB020E24BF3046F8
:102A6000714664416D41F3D302000B002000290040
:102A700070BD000062F30F2262F31F42401810F095
:102A8000030308D0C91A1FD3DB0748BF00F8012D84
:102A900028BF20F8022D130030B414461546103913
:102AA00028BF20E93C00FAD8490728BF20E90C00DC
:102AB00048BF40F8042D890028BF20F8022D48BFE8
:102AC00000F8012D30BC7047C91818BF00F8012D5F
:102AD000CB0728BF00F8012D704700007047FEE7C4
:102AE000FEE7FEE7FEE7FEE770477047704700F03D
:102AF00027B880B52020FEF7E5FD4020FEF7E2FD77
:102B00008020FEF7DFFDBDE802404FF48070FEF745
:102B1000D9BD80B54FF48060FEF7D4FD4FF400605E
:102B2000FEF7D0FD4FF40050FEF7CCFD4FF480408F
:102B3000FEF7C8FDBDE802404FF40040FEF7C2BDFD
:102B400002490A68886882180A60704700000020FD
:102B50000E48016841F47001016000220C490868C8
:102B600040F0010008608A604FF480520B68094809
:102B700003400B60CA6000200B68074A23F48023DF
:102B80000B6088614FF000611160704788ED00E0D4
:102B900000100240FFFFF6EA08ED00E00000000030
:102BA000000000000102030406070809A0860100D6
:102BB000400D0300801A060000350C0040420F0053
:102BC00080841E0000093D0000127A000024F400F9
:102BD00000366E010048E801006CDC0210B50749C0
:102BE00079441831064C7C44163404E00A68081D08
:102BF000114488470146A142F8D110BD2C000000C5
:102C00004C0000004EF68851CEF20001086840F4F6
:102C100070000860BFF34F8FBFF36F8F4FF00070ED
:102C2000E1EE100A7047000087E8FFFF9C060000F5
:102C300010000020000000004BEDFFFF100000001E
:102C400064000000000000200000000000F00DF80B
:102C5000002801D0FFF7C2FFAFF300800020AFF3E0
:102C60000080FEF785F900F002F80120704700F0BF
:102C700001B800000746384600F002F8FBE7000004
:102C800080B5AFF30080024A11001820ABBEFBE70D
:102C9000260002000148804701480047512B0008E8
:102CA000B52C00080000000010000000010000002A
:102CB00000093D00AFF30080FFF7A4FFFFF7C6FF58
:102CC0000000000001020304FFF7FEBFFFF7FEBF94
:102CD000FFF7FEBFFFF7FEBFFFF7FEBFFFF7FEBF28
:102CE000FFF7FEBFFFF7FEBFFFF7FEBFFFF7FEBF18
:102CF000FFF7FEBFFFF7FEBFFFF7FEBFFFF7FEBF08
:102D0000FFF7FEBFFFF7FEBFFFF7FEBFFFF7FEBFF7
:102D1000FFF7FEBFFFF7FEBFFFF7FEBFFFF7FEBFE7
:102D2000FFF7FEBFFFF7FEBFFFF7FEBFFFF7FEBFD7
:102D3000FFF7FEBFFFF7FEBFFFF7FEBFFFF7FEBFC7
:102D4000FFF7FEBFFFF7FEBFFFF7FEBFFFF7FEBFB7
:102D5000FFF7FEBFFFF7FEBFFFF7FEBFFFF7FEBFA7
:102D6000FFF7FEBFFFF7FEBFFFF7FEBFFFF7FEBF97
:102D7000FFF7FEBFFFF7FEBFFFF7FEBFFFF7FEBF87
:102D8000FFF7FEBFFFF7FEBFFFF7FEBFFFF7FEBF77
:102D9000FFF7FEBFFFF7FEBFFFF7FEBFFFF7FEBF67
:102DA000FFF7FEBFFFF7FEBFFFF7FEBFFFF7FEBF57
:102DB000FFF7FEBFFFF7FEBFFFF7FEBFFFF7FEBF47
:102DC000FFF7FEBFFFF7FEBFFFF7FEBFFFF7FEBF37
:102DD000FFF7FEBFFFF7FEBFFFF7FEBFFFF7FEBF27
:102DE000FFF7FEBFFFF7FEBFFFF7FEBFFFF7FEBF17
:102DF000FFF7FEBFFFF7FEBFFFF7FEBFFFF7FEBF07
:0400000508002CB50E
:00000001FF
